{
  "transactions": [
    {
      "hash": "0xb87c39c53e723e6a33a4a09d255f12ed3335c396ccb32e74294d9f92ef9fd7c2",
      "transactionType": "CALL",
      "contractName": null,
      "contractAddress": "0x914c81b1a6c3acf7b5903a7edcb53c59373c6b57",
      "function": "transferFrom(address,address,uint256)",
      "arguments": [
        "0xf7bB047581E3B6FD5B2c744a533Abd1846ED09Ee",
        "0xA844eE7A4359fe247F2a256eA4a691BBFFF13734",
        "0"
      ],
      "transaction": {
        "from": "0xf7bb047581e3b6fd5b2c744a533abd1846ed09ee",
        "to": "0x914c81b1a6c3acf7b5903a7edcb53c59373c6b57",
        "gas": "0x142f0",
        "value": "0x0",
        "input": "0x23b872dd000000000000000000000000f7bb047581e3b6fd5b2c744a533abd1846ed09ee000000000000000000000000a844ee7a4359fe247f2a256ea4a691bbfff137340000000000000000000000000000000000000000000000000000000000000000",
        "nonce": "0xdd",
        "chainId": "0xaa36a7"
      },
      "additionalContracts": [],
      "isFixedGasLimit": false
    },
    {
      "hash": "0x6fbb823cc2de069edbae0be65f2446769e448b486bbe48f1b77dfa13d1e637c3",
      "transactionType": "CALL",
      "contractName": null,
      "contractAddress": "0x914c81b1a6c3acf7b5903a7edcb53c59373c6b57",
      "function": "transferFrom(address,address,uint256)",
      "arguments": [
        "0xf7bB047581E3B6FD5B2c744a533Abd1846ED09Ee",
        "0x1790dA14028F354Ec30510b4D38bEbd0A0781A59",
        "1"
      ],
      "transaction": {
        "from": "0xf7bb047581e3b6fd5b2c744a533abd1846ed09ee",
        "to": "0x914c81b1a6c3acf7b5903a7edcb53c59373c6b57",
        "gas": "0x13a95",
        "value": "0x0",
        "input": "0x23b872dd000000000000000000000000f7bb047581e3b6fd5b2c744a533abd1846ed09ee0000000000000000000000001790da14028f354ec30510b4d38bebd0a0781a590000000000000000000000000000000000000000000000000000000000000001",
        "nonce": "0xde",
        "chainId": "0xaa36a7"
      },
      "additionalContracts": [],
      "isFixedGasLimit": false
    }
  ],
  "receipts": [
    {
      "status": "0x1",
      "cumulativeGasUsed": "0x808d89",
      "logs": [
        {
          "address": "0x914c81b1a6c3acf7b5903a7edcb53c59373c6b57",
          "topics": [
            "0xddf252ad1be2c89b69c2b068fc378daa952ba7f163c4a11628f55a4df523b3ef",
            "0x000000000000000000000000f7bb047581e3b6fd5b2c744a533abd1846ed09ee",
            "0x000000000000000000000000a844ee7a4359fe247f2a256ea4a691bbfff13734",
            "0x0000000000000000000000000000000000000000000000000000000000000000"
          ],
          "data": "0x",
          "blockHash": "0xedd9525494b41ce85ea06db87fc1d14a0c8e7c9c8f5f360527432aa0b9892076",
          "blockNumber": "0x92699e",
          "blockTimestamp": "0x6911055c",
          "transactionHash": "0xb87c39c53e723e6a33a4a09d255f12ed3335c396ccb32e74294d9f92ef9fd7c2",
          "transactionIndex": "0x3e",
          "logIndex": "0x47",
          "removed": false
        }
      ],
      "logsBloom": "0x02000000000000000000000000000000000000000000000000000000000004000000000000000000000000000008000000000000000000000000000000000000080000000000000000000008000000000000000000008000000000000000000000000000020000000000000000000800000000000000000000000010000000000000000000000000000000000000800000000000000000000000000000000000000000000000000000000000000000000000000000000000000000000000000000000002000000000000000010000000000000000000000000000000000020000000000000000000000000002000000000000000000000000000000000000010",
      "type": "0x2",
      "transactionHash": "0xb87c39c53e723e6a33a4a09d255f12ed3335c396ccb32e74294d9f92ef9fd7c2",
      "transactionIndex": "0x3e",
      "blockHash": "0xedd9525494b41ce85ea06db87fc1d14a0c8e7c9c8f5f360527432aa0b9892076",
      "blockNumber": "0x92699e",
      "gasUsed": "0xe9ce",
      "effectiveGasPrice": "0xf4248",
      "from": "0xf7bb047581e3b6fd5b2c744a533abd1846ed09ee",
      "to": "0x914c81b1a6c3acf7b5903a7edcb53c59373c6b57",
      "contractAddress": null
    },
    {
      "status": "0x1",
      "cumulativeGasUsed": "0xb6c9dd",
      "logs": [
        {
          "address": "0x914c81b1a6c3acf7b5903a7edcb53c59373c6b57",
          "topics": [
            "0xddf252ad1be2c89b69c2b068fc378daa952ba7f163c4a11628f55a4df523b3ef",
            "0x000000000000000000000000f7bb047581e3b6fd5b2c744a533abd1846ed09ee",
            "0x0000000000000000000000001790da14028f354ec30510b4d38bebd0a0781a59",
            "0x0000000000000000000000000000000000000000000000000000000000000001"
          ],
          "data": "0x",
          "blockHash": "0xbaf080d0d95d10e109668531aba4da64df451d7712eed27ed032572247c69af1",
          "blockNumber": "0x9269a4",
          "blockTimestamp": "0x691105a4",
          "transactionHash": "0x6fbb823cc2de069edbae0be65f2446769e448b486bbe48f1b77dfa13d1e637c3",
          "transactionIndex": "0x31",
          "logIndex": "0x49",
          "removed": false
        }
      ],
      "logsBloom": "0x02000000000000000000000000000000000000000000000000000000000004000000000000000000000000000008000000000000000000000000000000040000000000000000000000000008000000000000000000040000000000000000000000000000000000000000000000000100000000000000000000000010000000000000000000000000000000000000800000000000000000000000000000000000000000000000000000000004000000000000000000000000000000000000000000000002000000000000000010000000000000000000000000000000000040000000000000000000000000000000000000000000000000000000000000000110",
      "type": "0x2",
      "transactionHash": "0x6fbb823cc2de069edbae0be65f2446769e448b486bbe48f1b77dfa13d1e637c3",
      "transactionIndex": "0x31",
      "blockHash": "0xbaf080d0d95d10e109668531aba4da64df451d7712eed27ed032572247c69af1",
      "blockNumber": "0x9269a4",
      "gasUsed": "0xd71a",
      "effectiveGasPrice": "0xf4248",
      "from": "0xf7bb047581e3b6fd5b2c744a533abd1846ed09ee",
      "to": "0x914c81b1a6c3acf7b5903a7edcb53c59373c6b57",
      "contractAddress": null
    }
  ],
  "libraries": [],
  "pending": [],
  "returns": {},
  "timestamp": 1762723237685,
  "chain": 11155111,
  "commit": "1db4fdf"
}